{"_format":"hh-sol-artifact-1","contractName":"GameToken","sourceName":"contracts/GameToken.sol","abi":[{"inputs":[],"stateMutability":"nonpayable","type":"constructor"},{"anonymous":false,"inputs":[{"indexed":true,"internalType":"address","name":"owner","type":"address"},{"indexed":true,"internalType":"address","name":"spender","type":"address"},{"indexed":false,"internalType":"uint256","name":"value","type":"uint256"}],"name":"Approval","type":"event"},{"anonymous":false,"inputs":[{"indexed":true,"internalType":"address","name":"previousOwner","type":"address"},{"indexed":true,"internalType":"address","name":"newOwner","type":"address"}],"name":"OwnershipTransferred","type":"event"},{"anonymous":false,"inputs":[{"indexed":true,"internalType":"address","name":"from","type":"address"},{"indexed":true,"internalType":"address","name":"to","type":"address"},{"indexed":false,"internalType":"uint256","name":"value","type":"uint256"}],"name":"Transfer","type":"event"},{"inputs":[{"internalType":"address","name":"owner","type":"address"},{"internalType":"address","name":"spender","type":"address"}],"name":"allowance","outputs":[{"internalType":"uint256","name":"","type":"uint256"}],"stateMutability":"view","type":"function"},{"inputs":[{"internalType":"address","name":"spender","type":"address"},{"internalType":"uint256","name":"amount","type":"uint256"}],"name":"approve","outputs":[{"internalType":"bool","name":"","type":"bool"}],"stateMutability":"nonpayable","type":"function"},{"inputs":[{"internalType":"address","name":"account","type":"address"}],"name":"balanceOf","outputs":[{"internalType":"uint256","name":"","type":"uint256"}],"stateMutability":"view","type":"function"},{"inputs":[],"name":"decimals","outputs":[{"internalType":"uint8","name":"","type":"uint8"}],"stateMutability":"view","type":"function"},{"inputs":[{"internalType":"address","name":"spender","type":"address"},{"internalType":"uint256","name":"subtractedValue","type":"uint256"}],"name":"decreaseAllowance","outputs":[{"internalType":"bool","name":"","type":"bool"}],"stateMutability":"nonpayable","type":"function"},{"inputs":[{"internalType":"address","name":"spender","type":"address"},{"internalType":"uint256","name":"addedValue","type":"uint256"}],"name":"increaseAllowance","outputs":[{"internalType":"bool","name":"","type":"bool"}],"stateMutability":"nonpayable","type":"function"},{"inputs":[{"internalType":"address","name":"to","type":"address"},{"internalType":"uint256","name":"amount","type":"uint256"}],"name":"mint","outputs":[],"stateMutability":"nonpayable","type":"function"},{"inputs":[],"name":"minter","outputs":[{"internalType":"address","name":"","type":"address"}],"stateMutability":"view","type":"function"},{"inputs":[],"name":"name","outputs":[{"internalType":"string","name":"","type":"string"}],"stateMutability":"view","type":"function"},{"inputs":[],"name":"owner","outputs":[{"internalType":"address","name":"","type":"address"}],"stateMutability":"view","type":"function"},{"inputs":[],"name":"renounceOwnership","outputs":[],"stateMutability":"nonpayable","type":"function"},{"inputs":[{"internalType":"address","name":"_minter","type":"address"}],"name":"setMinter","outputs":[],"stateMutability":"nonpayable","type":"function"},{"inputs":[],"name":"symbol","outputs":[{"internalType":"string","name":"","type":"string"}],"stateMutability":"view","type":"function"},{"inputs":[],"name":"totalSupply","outputs":[{"internalType":"uint256","name":"","type":"uint256"}],"stateMutability":"view","type":"function"},{"inputs":[{"internalType":"address","name":"to","type":"address"},{"internalType":"uint256","name":"amount","type":"uint256"}],"name":"transfer","outputs":[{"internalType":"bool","name":"","type":"bool"}],"stateMutability":"nonpayable","type":"function"},{"inputs":[{"internalType":"address","name":"from","type":"address"},{"internalType":"address","name":"to","type":"address"},{"internalType":"uint256","name":"amount","type":"uint256"}],"name":"transferFrom","outputs":[{"internalType":"bool","name":"","type":"bool"}],"stateMutability":"nonpayable","type":"function"},{"inputs":[{"internalType":"address","name":"newOwner","type":"address"}],"name":"transferOwnership","outputs":[],"stateMutability":"nonpayable","type":"function"}],"bytecode":"0x608060405234801561001057600080fd5b506040518060400160405280600981526020017f47616d65546f6b656e00000000000000000000000000000000000000000000008152506040518060400160405280600381526020017f47544b0000000000000000000000000000000000000000000000000000000000815250816003908161008c9190610589565b50806004908161009c9190610589565b5050506100bb6100b06100f660201b60201c565b6100fe60201b60201c565b6100f1336100cd6101c460201b60201c565b600a6100d991906107ca565b6103e86100e69190610815565b6101cd60201b60201c565b610932565b600033905090565b6000600560009054906101000a900473ffffffffffffffffffffffffffffffffffffffff16905081600560006101000a81548173ffffffffffffffffffffffffffffffffffffffff021916908373ffffffffffffffffffffffffffffffffffffffff1602179055508173ffffffffffffffffffffffffffffffffffffffff168173ffffffffffffffffffffffffffffffffffffffff167f8be0079c531659141344cd1fd0a4f28419497f9722a3daafe3b4186f6b6457e060405160405180910390a35050565b60006012905090565b600073ffffffffffffffffffffffffffffffffffffffff168273ffffffffffffffffffffffffffffffffffffffff160361023c576040517f08c379a0000000000000000000000000000000000000000000000000000000008152600401610233906108b4565b60405180910390fd5b61024e6000838361032f60201b60201c565b806002600082825461026091906108d4565b92505081905550806000808473ffffffffffffffffffffffffffffffffffffffff1673ffffffffffffffffffffffffffffffffffffffff168152602001908152602001600020600082825401925050819055508173ffffffffffffffffffffffffffffffffffffffff16600073ffffffffffffffffffffffffffffffffffffffff167fddf252ad1be2c89b69c2b068fc378daa952ba7f163c4a11628f55a4df523b3ef836040516103119190610917565b60405180910390a361032b6000838361033460201b60201c565b5050565b505050565b505050565b600081519050919050565b7f4e487b7100000000000000000000000000000000000000000000000000000000600052604160045260246000fd5b7f4e487b7100000000000000000000000000000000000000000000000000000000600052602260045260246000fd5b600060028204905060018216806103ba57607f821691505b6020821081036103cd576103cc610373565b5b50919050565b60008190508160005260206000209050919050565b60006020601f8301049050919050565b600082821b905092915050565b6000600883026104357fffffffffffffffffffffffffffffffffffffffffffffffffffffffffffffffff826103f8565b61043f86836103f8565b95508019841693508086168417925050509392505050565b6000819050919050565b6000819050919050565b600061048661048161047c84610457565b610461565b610457565b9050919050565b6000819050919050565b6104a08361046b565b6104b46104ac8261048d565b848454610405565b825550505050565b600090565b6104c96104bc565b6104d4818484610497565b505050565b5b818110156104f8576104ed6000826104c1565b6001810190506104da565b5050565b601f82111561053d5761050e816103d3565b610517846103e8565b81016020851015610526578190505b61053a610532856103e8565b8301826104d9565b50505b505050565b600082821c905092915050565b600061056060001984600802610542565b1980831691505092915050565b6000610579838361054f565b9150826002028217905092915050565b61059282610339565b67ffffffffffffffff8111156105ab576105aa610344565b5b6105b582546103a2565b6105c08282856104fc565b600060209050601f8311600181146105f357600084156105e1578287015190505b6105eb858261056d565b865550610653565b601f198416610601866103d3565b60005b8281101561062957848901518255600182019150602085019450602081019050610604565b868310156106465784890151610642601f89168261054f565b8355505b6001600288020188555050505b505050505050565b7f4e487b7100000000000000000000000000000000000000000000000000000000600052601160045260246000fd5b60008160011c9050919050565b6000808291508390505b60018511156106e1578086048111156106bd576106bc61065b565b5b60018516156106cc5780820291505b80810290506106da8561068a565b94506106a1565b94509492505050565b6000826106fa57600190506107b6565b8161070857600090506107b6565b816001811461071e576002811461072857610757565b60019150506107b6565b60ff84111561073a5761073961065b565b5b8360020a9150848211156107515761075061065b565b5b506107b6565b5060208310610133831016604e8410600b841016171561078c5782820a9050838111156107875761078661065b565b5b6107b6565b6107998484846001610697565b925090508184048111156107b0576107af61065b565b5b81810290505b9392505050565b600060ff82169050919050565b60006107d582610457565b91506107e0836107bd565b925061080d7fffffffffffffffffffffffffffffffffffffffffffffffffffffffffffffffff84846106ea565b905092915050565b600061082082610457565b915061082b83610457565b925082820261083981610457565b915082820484148315176108505761084f61065b565b5b5092915050565b600082825260208201905092915050565b7f45524332303a206d696e7420746f20746865207a65726f206164647265737300600082015250565b600061089e601f83610857565b91506108a982610868565b602082019050919050565b600060208201905081810360008301526108cd81610891565b9050919050565b60006108df82610457565b91506108ea83610457565b92508282019050808211156109025761090161065b565b5b92915050565b61091181610457565b82525050565b600060208201905061092c6000830184610908565b92915050565b611996806109416000396000f3fe608060405234801561001057600080fd5b506004361061010b5760003560e01c806370a08231116100a2578063a457c2d711610071578063a457c2d7146102aa578063a9059cbb146102da578063dd62ed3e1461030a578063f2fde38b1461033a578063fca3b5aa146103565761010b565b806370a0823114610234578063715018a6146102645780638da5cb5b1461026e57806395d89b411461028c5761010b565b806323b872dd116100de57806323b872dd1461019a578063313ce567146101ca57806339509351146101e857806340c10f19146102185761010b565b806306fdde0314610110578063075461721461012e578063095ea7b31461014c57806318160ddd1461017c575b600080fd5b610118610372565b6040516101259190611073565b60405180910390f35b610136610404565b60405161014391906110d6565b60405180910390f35b61016660048036038101906101619190611158565b61042a565b60405161017391906111b3565b60405180910390f35b61018461044d565b60405161019191906111dd565b60405180910390f35b6101b460048036038101906101af91906111f8565b610457565b6040516101c191906111b3565b60405180910390f35b6101d2610486565b6040516101df9190611267565b60405180910390f35b61020260048036038101906101fd9190611158565b61048f565b60405161020f91906111b3565b60405180910390f35b610232600480360381019061022d9190611158565b6104c6565b005b61024e60048036038101906102499190611282565b610564565b60405161025b91906111dd565b60405180910390f35b61026c6105ac565b005b6102766105c0565b60405161028391906110d6565b60405180910390f35b6102946105ea565b6040516102a19190611073565b60405180910390f35b6102c460048036038101906102bf9190611158565b61067c565b6040516102d191906111b3565b60405180910390f35b6102f460048036038101906102ef9190611158565b6106f3565b60405161030191906111b3565b60405180910390f35b610324600480360381019061031f91906112af565b610716565b60405161033191906111dd565b60405180910390f35b610354600480360381019061034f9190611282565b61079d565b005b610370600480360381019061036b9190611282565b610820565b005b6060600380546103819061131e565b80601f01602080910402602001604051908101604052809291908181526020018280546103ad9061131e565b80156103fa5780601f106103cf576101008083540402835291602001916103fa565b820191906000526020600020905b8154815290600101906020018083116103dd57829003601f168201915b5050505050905090565b600660009054906101000a900473ffffffffffffffffffffffffffffffffffffffff1681565b60008061043561086c565b9050610442818585610874565b600191505092915050565b6000600254905090565b60008061046261086c565b905061046f858285610a3d565b61047a858585610ac9565b60019150509392505050565b60006012905090565b60008061049a61086c565b90506104bb8185856104ac8589610716565b6104b6919061137e565b610874565b600191505092915050565b600660009054906101000a900473ffffffffffffffffffffffffffffffffffffffff1673ffffffffffffffffffffffffffffffffffffffff163373ffffffffffffffffffffffffffffffffffffffff1614610556576040517f08c379a000000000000000000000000000000000000000000000000000000000815260040161054d906113fe565b60405180910390fd5b6105608282610d3f565b5050565b60008060008373ffffffffffffffffffffffffffffffffffffffff1673ffffffffffffffffffffffffffffffffffffffff168152602001908152602001600020549050919050565b6105b4610e95565b6105be6000610f13565b565b6000600560009054906101000a900473ffffffffffffffffffffffffffffffffffffffff16905090565b6060600480546105f99061131e565b80601f01602080910402602001604051908101604052809291908181526020018280546106259061131e565b80156106725780601f1061064757610100808354040283529160200191610672565b820191906000526020600020905b81548152906001019060200180831161065557829003601f168201915b5050505050905090565b60008061068761086c565b905060006106958286610716565b9050838110156106da576040517f08c379a00000000000000000000000000000000000000000000000000000000081526004016106d190611490565b60405180910390fd5b6106e78286868403610874565b60019250505092915050565b6000806106fe61086c565b905061070b818585610ac9565b600191505092915050565b6000600160008473ffffffffffffffffffffffffffffffffffffffff1673ffffffffffffffffffffffffffffffffffffffff16815260200190815260200160002060008373ffffffffffffffffffffffffffffffffffffffff1673ffffffffffffffffffffffffffffffffffffffff16815260200190815260200160002054905092915050565b6107a5610e95565b600073ffffffffffffffffffffffffffffffffffffffff168173ffffffffffffffffffffffffffffffffffffffff1603610814576040517f08c379a000000000000000000000000000000000000000000000000000000000815260040161080b90611522565b60405180910390fd5b61081d81610f13565b50565b610828610e95565b80600660006101000a81548173ffffffffffffffffffffffffffffffffffffffff021916908373ffffffffffffffffffffffffffffffffffffffff16021790555050565b600033905090565b600073ffffffffffffffffffffffffffffffffffffffff168373ffffffffffffffffffffffffffffffffffffffff16036108e3576040517f08c379a00000000000000000000000000000000000000000000000000000000081526004016108da906115b4565b60405180910390fd5b600073ffffffffffffffffffffffffffffffffffffffff168273ffffffffffffffffffffffffffffffffffffffff1603610952576040517f08c379a000000000000000000000000000000000000000000000000000000000815260040161094990611646565b60405180910390fd5b80600160008573ffffffffffffffffffffffffffffffffffffffff1673ffffffffffffffffffffffffffffffffffffffff16815260200190815260200160002060008473ffffffffffffffffffffffffffffffffffffffff1673ffffffffffffffffffffffffffffffffffffffff168152602001908152602001600020819055508173ffffffffffffffffffffffffffffffffffffffff168373ffffffffffffffffffffffffffffffffffffffff167f8c5be1e5ebec7d5bd14f71427d1e84f3dd0314c0f7b2291e5b200ac8c7c3b92583604051610a3091906111dd565b60405180910390a3505050565b6000610a498484610716565b90507fffffffffffffffffffffffffffffffffffffffffffffffffffffffffffffffff8114610ac35781811015610ab5576040517f08c379a0000000000000000000000000000000000000000000000000000000008152600401610aac906116b2565b60405180910390fd5b610ac28484848403610874565b5b50505050565b600073ffffffffffffffffffffffffffffffffffffffff168373ffffffffffffffffffffffffffffffffffffffff1603610b38576040517f08c379a0000000000000000000000000000000000000000000000000000000008152600401610b2f90611744565b60405180910390fd5b600073ffffffffffffffffffffffffffffffffffffffff168273ffffffffffffffffffffffffffffffffffffffff1603610ba7576040517f08c379a0000000000000000000000000000000000000000000000000000000008152600401610b9e906117d6565b60405180910390fd5b610bb2838383610fd9565b60008060008573ffffffffffffffffffffffffffffffffffffffff1673ffffffffffffffffffffffffffffffffffffffff16815260200190815260200160002054905081811015610c38576040517f08c379a0000000000000000000000000000000000000000000000000000000008152600401610c2f90611868565b60405180910390fd5b8181036000808673ffffffffffffffffffffffffffffffffffffffff1673ffffffffffffffffffffffffffffffffffffffff16815260200190815260200160002081905550816000808573ffffffffffffffffffffffffffffffffffffffff1673ffffffffffffffffffffffffffffffffffffffff168152602001908152602001600020600082825401925050819055508273ffffffffffffffffffffffffffffffffffffffff168473ffffffffffffffffffffffffffffffffffffffff167fddf252ad1be2c89b69c2b068fc378daa952ba7f163c4a11628f55a4df523b3ef84604051610d2691906111dd565b60405180910390a3610d39848484610fde565b50505050565b600073ffffffffffffffffffffffffffffffffffffffff168273ffffffffffffffffffffffffffffffffffffffff1603610dae576040517f08c379a0000000000000000000000000000000000000000000000000000000008152600401610da5906118d4565b60405180910390fd5b610dba60008383610fd9565b8060026000828254610dcc919061137e565b92505081905550806000808473ffffffffffffffffffffffffffffffffffffffff1673ffffffffffffffffffffffffffffffffffffffff168152602001908152602001600020600082825401925050819055508173ffffffffffffffffffffffffffffffffffffffff16600073ffffffffffffffffffffffffffffffffffffffff167fddf252ad1be2c89b69c2b068fc378daa952ba7f163c4a11628f55a4df523b3ef83604051610e7d91906111dd565b60405180910390a3610e9160008383610fde565b5050565b610e9d61086c565b73ffffffffffffffffffffffffffffffffffffffff16610ebb6105c0565b73ffffffffffffffffffffffffffffffffffffffff1614610f11576040517f08c379a0000000000000000000000000000000000000000000000000000000008152600401610f0890611940565b60405180910390fd5b565b6000600560009054906101000a900473ffffffffffffffffffffffffffffffffffffffff16905081600560006101000a81548173ffffffffffffffffffffffffffffffffffffffff021916908373ffffffffffffffffffffffffffffffffffffffff1602179055508173ffffffffffffffffffffffffffffffffffffffff168173ffffffffffffffffffffffffffffffffffffffff167f8be0079c531659141344cd1fd0a4f28419497f9722a3daafe3b4186f6b6457e060405160405180910390a35050565b505050565b505050565b600081519050919050565b600082825260208201905092915050565b60005b8381101561101d578082015181840152602081019050611002565b60008484015250505050565b6000601f19601f8301169050919050565b600061104582610fe3565b61104f8185610fee565b935061105f818560208601610fff565b61106881611029565b840191505092915050565b6000602082019050818103600083015261108d818461103a565b905092915050565b600073ffffffffffffffffffffffffffffffffffffffff82169050919050565b60006110c082611095565b9050919050565b6110d0816110b5565b82525050565b60006020820190506110eb60008301846110c7565b92915050565b600080fd5b6110ff816110b5565b811461110a57600080fd5b50565b60008135905061111c816110f6565b92915050565b6000819050919050565b61113581611122565b811461114057600080fd5b50565b6000813590506111528161112c565b92915050565b6000806040838503121561116f5761116e6110f1565b5b600061117d8582860161110d565b925050602061118e85828601611143565b9150509250929050565b60008115159050919050565b6111ad81611198565b82525050565b60006020820190506111c860008301846111a4565b92915050565b6111d781611122565b82525050565b60006020820190506111f260008301846111ce565b92915050565b600080600060608486031215611211576112106110f1565b5b600061121f8682870161110d565b93505060206112308682870161110d565b925050604061124186828701611143565b9150509250925092565b600060ff82169050919050565b6112618161124b565b82525050565b600060208201905061127c6000830184611258565b92915050565b600060208284031215611298576112976110f1565b5b60006112a68482850161110d565b91505092915050565b600080604083850312156112c6576112c56110f1565b5b60006112d48582860161110d565b92505060206112e58582860161110d565b9150509250929050565b7f4e487b7100000000000000000000000000000000000000000000000000000000600052602260045260246000fd5b6000600282049050600182168061133657607f821691505b602082108103611349576113486112ef565b5b50919050565b7f4e487b7100000000000000000000000000000000000000000000000000000000600052601160045260246000fd5b600061138982611122565b915061139483611122565b92508282019050808211156113ac576113ab61134f565b5b92915050565b7f4e6f7420617574686f72697a6564000000000000000000000000000000000000600082015250565b60006113e8600e83610fee565b91506113f3826113b2565b602082019050919050565b60006020820190508181036000830152611417816113db565b9050919050565b7f45524332303a2064656372656173656420616c6c6f77616e63652062656c6f7760008201527f207a65726f000000000000000000000000000000000000000000000000000000602082015250565b600061147a602583610fee565b91506114858261141e565b604082019050919050565b600060208201905081810360008301526114a98161146d565b9050919050565b7f4f776e61626c653a206e6577206f776e657220697320746865207a65726f206160008201527f6464726573730000000000000000000000000000000000000000000000000000602082015250565b600061150c602683610fee565b9150611517826114b0565b604082019050919050565b6000602082019050818103600083015261153b816114ff565b9050919050565b7f45524332303a20617070726f76652066726f6d20746865207a65726f2061646460008201527f7265737300000000000000000000000000000000000000000000000000000000602082015250565b600061159e602483610fee565b91506115a982611542565b604082019050919050565b600060208201905081810360008301526115cd81611591565b9050919050565b7f45524332303a20617070726f766520746f20746865207a65726f20616464726560008201527f7373000000000000000000000000000000000000000000000000000000000000602082015250565b6000611630602283610fee565b915061163b826115d4565b604082019050919050565b6000602082019050818103600083015261165f81611623565b9050919050565b7f45524332303a20696e73756666696369656e7420616c6c6f77616e6365000000600082015250565b600061169c601d83610fee565b91506116a782611666565b602082019050919050565b600060208201905081810360008301526116cb8161168f565b9050919050565b7f45524332303a207472616e736665722066726f6d20746865207a65726f20616460008201527f6472657373000000000000000000000000000000000000000000000000000000602082015250565b600061172e602583610fee565b9150611739826116d2565b604082019050919050565b6000602082019050818103600083015261175d81611721565b9050919050565b7f45524332303a207472616e7366657220746f20746865207a65726f206164647260008201527f6573730000000000000000000000000000000000000000000000000000000000602082015250565b60006117c0602383610fee565b91506117cb82611764565b604082019050919050565b600060208201905081810360008301526117ef816117b3565b9050919050565b7f45524332303a207472616e7366657220616d6f756e742065786365656473206260008201527f616c616e63650000000000000000000000000000000000000000000000000000602082015250565b6000611852602683610fee565b915061185d826117f6565b604082019050919050565b6000602082019050818103600083015261188181611845565b9050919050565b7f45524332303a206d696e7420746f20746865207a65726f206164647265737300600082015250565b60006118be601f83610fee565b91506118c982611888565b602082019050919050565b600060208201905081810360008301526118ed816118b1565b9050919050565b7f4f776e61626c653a2063616c6c6572206973206e6f7420746865206f776e6572600082015250565b600061192a602083610fee565b9150611935826118f4565b602082019050919050565b600060208201905081810360008301526119598161191d565b905091905056fea264697066735822122014f5b8371d89b1db354f9d8ca309946e9ee34a83b80fd170105380f203a3f18f64736f6c634300081c0033","linkReferences":{},"deployedLinkReferences":{}}