{
  "_format": "hh-sol-artifact-1",
  "contractName": "PlayGame",
  "sourceName": "contracts/PlayGame.sol",
  "abi": [
    {
      "inputs": [
        {
          "internalType": "address",
          "name": "tokenAddress",
          "type": "address"
        }
      ],
      "stateMutability": "nonpayable",
      "type": "constructor"
    },
    {
      "inputs": [],
      "name": "play",
      "outputs": [],
      "stateMutability": "nonpayable",
      "type": "function"
    },
    {
      "inputs": [],
      "name": "reward",
      "outputs": [
        {
          "internalType": "uint256",
          "name": "",
          "type": "uint256"
        }
      ],
      "stateMutability": "view",
      "type": "function"
    },
    {
      "inputs": [],
      "name": "token",
      "outputs": [
        {
          "internalType": "contract GameToken",
          "name": "",
          "type": "address"
        }
      ],
      "stateMutability": "view",
      "type": "function"
    }
  ],
  "bytecode": "0x6080604052678ac7230489e8000060015534801561001c57600080fd5b506040516103b83803806103b8833981810160405281019061003e91906100e7565b806000806101000a81548173ffffffffffffffffffffffffffffffffffffffff021916908373ffffffffffffffffffffffffffffffffffffffff16021790555050610114565b600080fd5b600073ffffffffffffffffffffffffffffffffffffffff82169050919050565b60006100b482610089565b9050919050565b6100c4816100a9565b81146100cf57600080fd5b50565b6000815190506100e1816100bb565b92915050565b6000602082840312156100fd576100fc610084565b5b600061010b848285016100d2565b91505092915050565b610295806101236000396000f3fe608060405234801561001057600080fd5b50600436106100415760003560e01c8063228cb7331461004657806393e84cd914610064578063fc0c546a1461006e575b600080fd5b61004e61008c565b60405161005b9190610160565b60405180910390f35b61006c610092565b005b610076610123565b60405161008391906101fa565b60405180910390f35b60015481565b60008054906101000a900473ffffffffffffffffffffffffffffffffffffffff1673ffffffffffffffffffffffffffffffffffffffff166340c10f19336001546040518363ffffffff1660e01b81526004016100ef929190610236565b600060405180830381600087803b15801561010957600080fd5b505af115801561011d573d6000803e3d6000fd5b50505050565b60008054906101000a900473ffffffffffffffffffffffffffffffffffffffff1681565b6000819050919050565b61015a81610147565b82525050565b60006020820190506101756000830184610151565b92915050565b600073ffffffffffffffffffffffffffffffffffffffff82169050919050565b6000819050919050565b60006101c06101bb6101b68461017b565b61019b565b61017b565b9050919050565b60006101d2826101a5565b9050919050565b60006101e4826101c7565b9050919050565b6101f4816101d9565b82525050565b600060208201905061020f60008301846101eb565b92915050565b60006102208261017b565b9050919050565b61023081610215565b82525050565b600060408201905061024b6000830185610227565b6102586020830184610151565b939250505056fea26469706673582212200ba805bc19559e80d196b7552c1c7797fe16aa63a5426da4a14f12fab852276e64736f6c634300081c0033",
  "linkReferences": {},
  "deployedLinkReferences": {}
}