{
  "_format": "hh-sol-artifact-1",
  "contractName": "TokenStore",
  "sourceName": "contracts/TokenStore.sol",
  "abi": [
    {
      "inputs": [
        {
          "internalType": "address",
          "name": "tokenAddress",
          "type": "address"
        }
      ],
      "stateMutability": "nonpayable",
      "type": "constructor"
    },
    {
      "anonymous": false,
      "inputs": [
        {
          "indexed": true,
          "internalType": "address",
          "name": "previousOwner",
          "type": "address"
        },
        {
          "indexed": true,
          "internalType": "address",
          "name": "newOwner",
          "type": "address"
        }
      ],
      "name": "OwnershipTransferred",
      "type": "event"
    },
    {
      "inputs": [
        {
          "internalType": "uint256",
          "name": "amount",
          "type": "uint256"
        }
      ],
      "name": "buyTokens",
      "outputs": [],
      "stateMutability": "payable",
      "type": "function"
    },
    {
      "inputs": [],
      "name": "owner",
      "outputs": [
        {
          "internalType": "address",
          "name": "",
          "type": "address"
        }
      ],
      "stateMutability": "view",
      "type": "function"
    },
    {
      "inputs": [],
      "name": "pricePerToken",
      "outputs": [
        {
          "internalType": "uint256",
          "name": "",
          "type": "uint256"
        }
      ],
      "stateMutability": "view",
      "type": "function"
    },
    {
      "inputs": [],
      "name": "renounceOwnership",
      "outputs": [],
      "stateMutability": "nonpayable",
      "type": "function"
    },
    {
      "inputs": [],
      "name": "token",
      "outputs": [
        {
          "internalType": "contract GameToken",
          "name": "",
          "type": "address"
        }
      ],
      "stateMutability": "view",
      "type": "function"
    },
    {
      "inputs": [
        {
          "internalType": "address",
          "name": "newOwner",
          "type": "address"
        }
      ],
      "name": "transferOwnership",
      "outputs": [],
      "stateMutability": "nonpayable",
      "type": "function"
    },
    {
      "inputs": [],
      "name": "withdrawETH",
      "outputs": [],
      "stateMutability": "nonpayable",
      "type": "function"
    }
  ],
  "bytecode": "0x6080604052662386f26fc1000060025534801561001b57600080fd5b50604051610d7b380380610d7b833981810160405281019061003d91906101cf565b61005961004e6100a060201b60201c565b6100a860201b60201c565b80600160006101000a81548173ffffffffffffffffffffffffffffffffffffffff021916908373ffffffffffffffffffffffffffffffffffffffff160217905550506101fc565b600033905090565b60008060009054906101000a900473ffffffffffffffffffffffffffffffffffffffff169050816000806101000a81548173ffffffffffffffffffffffffffffffffffffffff021916908373ffffffffffffffffffffffffffffffffffffffff1602179055508173ffffffffffffffffffffffffffffffffffffffff168173ffffffffffffffffffffffffffffffffffffffff167f8be0079c531659141344cd1fd0a4f28419497f9722a3daafe3b4186f6b6457e060405160405180910390a35050565b600080fd5b600073ffffffffffffffffffffffffffffffffffffffff82169050919050565b600061019c82610171565b9050919050565b6101ac81610191565b81146101b757600080fd5b50565b6000815190506101c9816101a3565b92915050565b6000602082840312156101e5576101e461016c565b5b60006101f3848285016101ba565b91505092915050565b610b708061020b6000396000f3fe6080604052600436106100705760003560e01c80638da5cb5b1161004e5780638da5cb5b146100d3578063e086e5ec146100fe578063f2fde38b14610115578063fc0c546a1461013e57610070565b80633610724e14610075578063715018a6146100915780637b1b1de6146100a8575b600080fd5b61008f600480360381019061008a91906105bb565b610169565b005b34801561009d57600080fd5b506100a66102f2565b005b3480156100b457600080fd5b506100bd610306565b6040516100ca91906105f7565b60405180910390f35b3480156100df57600080fd5b506100e861030c565b6040516100f59190610653565b60405180910390f35b34801561010a57600080fd5b50610113610335565b005b34801561012157600080fd5b5061013c6004803603810190610137919061069a565b61038d565b005b34801561014a57600080fd5b50610153610410565b6040516101609190610726565b60405180910390f35b600254816101779190610770565b3410156101b9576040517f08c379a00000000000000000000000000000000000000000000000000000000081526004016101b09061080f565b60405180910390fd5b600160009054906101000a900473ffffffffffffffffffffffffffffffffffffffff1673ffffffffffffffffffffffffffffffffffffffff166340c10f1933600160009054906101000a900473ffffffffffffffffffffffffffffffffffffffff1673ffffffffffffffffffffffffffffffffffffffff1663313ce5676040518163ffffffff1660e01b8152600401602060405180830381865afa158015610265573d6000803e3d6000fd5b505050506040513d601f19601f820116820180604052508101906102899190610868565b600a61029591906109c8565b846102a09190610770565b6040518363ffffffff1660e01b81526004016102bd929190610a13565b600060405180830381600087803b1580156102d757600080fd5b505af11580156102eb573d6000803e3d6000fd5b5050505050565b6102fa610436565b61030460006104b4565b565b60025481565b60008060009054906101000a900473ffffffffffffffffffffffffffffffffffffffff16905090565b61033d610436565b61034561030c565b73ffffffffffffffffffffffffffffffffffffffff166108fc479081150290604051600060405180830381858888f1935050505015801561038a573d6000803e3d6000fd5b50565b610395610436565b600073ffffffffffffffffffffffffffffffffffffffff168173ffffffffffffffffffffffffffffffffffffffff1603610404576040517f08c379a00000000000000000000000000000000000000000000000000000000081526004016103fb90610aae565b60405180910390fd5b61040d816104b4565b50565b600160009054906101000a900473ffffffffffffffffffffffffffffffffffffffff1681565b61043e610578565b73ffffffffffffffffffffffffffffffffffffffff1661045c61030c565b73ffffffffffffffffffffffffffffffffffffffff16146104b2576040517f08c379a00000000000000000000000000000000000000000000000000000000081526004016104a990610b1a565b60405180910390fd5b565b60008060009054906101000a900473ffffffffffffffffffffffffffffffffffffffff169050816000806101000a81548173ffffffffffffffffffffffffffffffffffffffff021916908373ffffffffffffffffffffffffffffffffffffffff1602179055508173ffffffffffffffffffffffffffffffffffffffff168173ffffffffffffffffffffffffffffffffffffffff167f8be0079c531659141344cd1fd0a4f28419497f9722a3daafe3b4186f6b6457e060405160405180910390a35050565b600033905090565b600080fd5b6000819050919050565b61059881610585565b81146105a357600080fd5b50565b6000813590506105b58161058f565b92915050565b6000602082840312156105d1576105d0610580565b5b60006105df848285016105a6565b91505092915050565b6105f181610585565b82525050565b600060208201905061060c60008301846105e8565b92915050565b600073ffffffffffffffffffffffffffffffffffffffff82169050919050565b600061063d82610612565b9050919050565b61064d81610632565b82525050565b60006020820190506106686000830184610644565b92915050565b61067781610632565b811461068257600080fd5b50565b6000813590506106948161066e565b92915050565b6000602082840312156106b0576106af610580565b5b60006106be84828501610685565b91505092915050565b6000819050919050565b60006106ec6106e76106e284610612565b6106c7565b610612565b9050919050565b60006106fe826106d1565b9050919050565b6000610710826106f3565b9050919050565b61072081610705565b82525050565b600060208201905061073b6000830184610717565b92915050565b7f4e487b7100000000000000000000000000000000000000000000000000000000600052601160045260246000fd5b600061077b82610585565b915061078683610585565b925082820261079481610585565b915082820484148315176107ab576107aa610741565b5b5092915050565b600082825260208201905092915050565b7f496e73756666696369656e742045544800000000000000000000000000000000600082015250565b60006107f96010836107b2565b9150610804826107c3565b602082019050919050565b60006020820190508181036000830152610828816107ec565b9050919050565b600060ff82169050919050565b6108458161082f565b811461085057600080fd5b50565b6000815190506108628161083c565b92915050565b60006020828403121561087e5761087d610580565b5b600061088c84828501610853565b91505092915050565b60008160011c9050919050565b6000808291508390505b60018511156108ec578086048111156108c8576108c7610741565b5b60018516156108d75780820291505b80810290506108e585610895565b94506108ac565b94509492505050565b60008261090557600190506109c1565b8161091357600090506109c1565b8160018114610929576002811461093357610962565b60019150506109c1565b60ff84111561094557610944610741565b5b8360020a91508482111561095c5761095b610741565b5b506109c1565b5060208310610133831016604e8410600b84101617156109975782820a90508381111561099257610991610741565b5b6109c1565b6109a484848460016108a2565b925090508184048111156109bb576109ba610741565b5b81810290505b9392505050565b60006109d382610585565b91506109de8361082f565b9250610a0b7fffffffffffffffffffffffffffffffffffffffffffffffffffffffffffffffff84846108f5565b905092915050565b6000604082019050610a286000830185610644565b610a3560208301846105e8565b9392505050565b7f4f776e61626c653a206e6577206f776e657220697320746865207a65726f206160008201527f6464726573730000000000000000000000000000000000000000000000000000602082015250565b6000610a986026836107b2565b9150610aa382610a3c565b604082019050919050565b60006020820190508181036000830152610ac781610a8b565b9050919050565b7f4f776e61626c653a2063616c6c6572206973206e6f7420746865206f776e6572600082015250565b6000610b046020836107b2565b9150610b0f82610ace565b602082019050919050565b60006020820190508181036000830152610b3381610af7565b905091905056fea264697066735822122008c03696696ef9faa4c22eff635fe22ad5911cf349697c329a7afe85ef26c45364736f6c634300081c0033",
  "linkReferences": {},
  "deployedLinkReferences": {}
}